:1000000000308A002F2800000A108A100A11820787
:100010003F3406345B344F3466346D347C340734FB
:100020007F346F3477347C3439345E3479347134CE
:10003000223084008313000803192C280130F800B3
:10004000F701F70B2128F80B20284A30F700F70BAF
:1000500027282A28800B1E288A110A126128831655
:100060001F149F141F159F1107309C0083131F300E
:1000700083050030860086018312860183160912EB
:10008000F030831297059D0590010030F800920032
:100090000030831692001F149F141F159F118312A6
:1000A0001F10A10121080F3C031C63282108042014
:1000B000A20083168601831222088600C830A2009F
:0A00C0001828A10A522851286300F5
:02400E00313F40
:00000001FF
;PIC16F877A
;CRC=1F60  CREATED="23-Þub-19 14:38"
