:1000000003308A00772B00000C050D152A152A15E0
:100010002A152A152A152A152A152A152A152A15E8
:100020002A152A152A152A152A152A152A152A15D8
:100030002A1500000A340D34203432343434433469
:100040003034323420344834413452344934433427
:100050004934203445344534503452344F344D34CF
:10006000203449344C34453420344234DD344C346B
:100070004734DD3420344F344B3455344D3441341F
:100080002034593441345A344D34413400348A06D2
:100090002A152A152A152A152A152A152A152A1568
:1000A0002A152A152A152A152A152A152A152A1558
:1000B0002A152A152A152A008A0620216939A03412
:1000C0007336E536A039E5316937693D3E008A0669
:1000D000CF35F5366110A8272910D930FA366110CE
:1000E000A82C29000A340D344F346B3475346D3428
:1000F00061346B342034693473347434653464345B
:100100006934F03469346E3469347A3420346134BB
:100110006434723465347334693420346734693438
:10012000723469346E3469347A343E3400348A0669
:100130002022E53365393D1F252C00000A340D349B
:10014000593461347A346D3461346B342034693419
:1001500073347434653464346934F03469346E341F
:1001600069347A34203461346434723465347334DD
:100170006934203467346934723469346E346934D4
:100180007A343E3400340A340D34593461347A34CC
:100190006D3461346B3420346934733474346534B1
:1001A00064346934F03469346E3469347A34203418
:1001B000623469346C346734693479346934203496
:1001C00067346934723469346E3469347A343E3455
:1001D00000340B08A4008B13831603178C170C1420
:1001E0000000000083120C087F3903193229031321
:1001F000A50003170D080313A60003170F08031328
:10020000A70025080C1E02299900260803178D0057
:100210000313270803178F0083168C170C14000094
:10022000000083120C0D0E0D7F39031932290313C0
:10023000A50003170D080313A60003170F080313E7
:10024000A70025080C1E22299900260803178D00F7
:100250000313270803178F008D0A03198F0A03134E
:10026000EC2803170313A41B8B170800831603172E
:100270008C170C140000000083128C0803195A29F3
:100280000D080313A40003170F080313A500031799
:100290000C0803130C1E4A299900240803178D002B
:1002A0000313250803178F008D0A03198F0A031300
:1002B00036290317031308008C1E5C291A08A600B0
:1002C00026080C1E612999002608393C031C6D295B
:1002D00030302602F8007C297C292608603C03186F
:1002E000782926087A3C031C78292608DF397929E1
:1002F0002608BF3E0A3EF80008005C217808A500E9
:100300005C217808A4002408DD3C031D8B29250806
:10031000F80092299229250EF700F030F7057708AA
:100320002407F80008000830F80000008711A01129
:1003300020088316870000008312A70D0712031CF4
:10034000A7292016200883168700AB2983122012C4
:1003500020088316870000008312A015200883164A
:1003600087008312871DB229F80B95290000871199
:10037000A011200883168700000083122016200891
:1003800083168700000000008312A0152008831642
:1003900087008312871DCA29F8010000071A781404
:1003A0008711A011200883168700831207122012DC
:1003B0002008831687008312080020162008831661
:1003C000870000008312A015200883168700000014
:1003D0008312071220122008831687000000831260
:1003E0008711A011200883168700A0308312A70070
:1003F00093217808261078182614201220088316D6
:10040000870000008312A01520088316870083123E
:10041000871D082A00000C2A0000201620088316D9
:100420008700000000308312261C0130F80008000D
:10043000DD21F8080319182A2016200883168700E2
:1004400000008312A0152008831687000000831285
:1004500007122012200883168700000083128711DC
:10046000A011200883168700A0308312A7009321D3
:100470002408A70093212016200883168700000077
:100480008312A01520088316870000008312871DA1
:10049000472A0712201220088316870000008312C3
:1004A0008711A011200883168700A1308312A700AE
:1004B0009321F7010830A7007708A800201620082C
:1004C0008316870000008312A0152008831687007A
:1004D0008312871D692A071A0314071E0310F80DDB
:1004E0000000A01120088316870083128711A70B34
:1004F0005E2A201620088316870000008312071248
:1005000028080319882A20122008831687008312DE
:100510000000A0152008831687008312871D8E2AED
:1005200000008711A01120088316870000008312A5
:100530000712201220088316870078088312A5006E
:10054000201220088316870000008312A0152008BF
:10055000831687008312871DAB2A0000AF2A000094
:100560002016200883168700000083122508F80053
:100570008A110A12EC2B0B08A6008B1383160317A3
:100580008C170C14000000000318EE2A83120C08CC
:100590007F390313A70003170D080313A8000317DF
:1005A0000F080313A90027080C1ED42A9900280855
:1005B00003178D000313290803178F0083168C1768
:1005C0000C140000000083120313A50BE82AEB2A89
:1005D00083160317EE2A0E2B8316031783120C0DB6
:1005E0000E0D7F390313A70003170D080313A8008E
:1005F00003170F080313A90027080C1EFD2A9900F2
:10060000280803178D000313290803178F008D0A8C
:1006100003198F0A03100313A50BBE2AA61B8B1701
:100620008A110A12F82BA61B262B0F30F700250E75
:10063000F7050A3077020318202B3030F707222BFA
:100640002608F70777080C1E232B99000F30A50505
:100650000A30250203182E2B3030302BA613260823
:10066000A50725080C1E322B99008A110A12FD2BB2
:10067000DD21F8080319382B20162008831687007F
:1006800000008312A0152008831687000000831243
:10069000071220122008831687000000831287119A
:1006A000A011200883168700A0308312A700932191
:1006B0002408A70093212508A700932120122008D1
:1006C0008316870000008312A01520088316870078
:1006D0008312871D692B00006D2B00002016200857
:1006E00083168700000083128A110A121A2C19300F
:1006F00083169900A6309800903083129800FF303E
:10070000A00083161F149F141F159F1183131F3001
:1007100083050912831290010030F8009200003026
:10072000831692001F149F141F159F1183121F1010
:10073000F03097059D05043003178D0000308F00C1
:100740000313E9201A3003178D0000308F000313C4
:100750003621473003178D0000308F000313E92046
:100760005C3003178D0000308F000313E9206730E1
:1007700003178D0000308F000313E9208C1EBE2B61
:100780001A08A3002308603C0318CD2B23087A3CE9
:10079000031CCD2B2308DF39CE2B2308A30023080D
:1007A0000C1ED02B990023084F3C0319DB2B230888
:1007B000593C031DB72B23084F3C031DFD2B723002
:1007C00003178D0000308F00031336217D21780838
:1007D000A2002208A400182A7808A4009730031762
:1007E0008D0000308F0003100A300313A500BB2AD0
:1007F0002408A5003730A600132B2308593C031DFD
:100800001A2C9E3003178D0000308F000313362101
:100810007D217808A200C33003178D0000308F00BF
:10082000031336217D217808A1002208A4002108A5
:08083000A500382BB72B630073
:02400E00313F40
:00000001FF
;PIC16F877
;CRC=5775  CREATED="26-Eyl-19 11:33"
